:02000000C12815
:10000800FF00030E8301A9000A08AA008A017008EC
:10001800A0008B1C1328A109FD308B0518280B1D87
:100028001828F8308100A70AFB308B052008F0005B
:0E0038002A088A00290E8300FF0E7F0E0900A1
:1000460083120313A7013008003C031D2C282F0838
:0A005600270203182F2826280800AF
:10006000831603139816903083129800831687170F
:10007000071383128C1E3F281A08F0003928080045
:100080004930831203139F00C03083169F008514EC
:02009000080066
:10009200FA308316031392000C30831297000C304F
:0E00A2009D0095019B0191010630920008001F
:1000B000831203132B0895002D089B00063088003F
:0200C000080036
:1000C200831203131A08F100981C692818121816D3
:0600D2007108F0000800B7
:1000D8003330831603139900181530206430AF00AD
:0800E8000030B00023200800E5
:1000F0001530831603138600880188308700831229
:100100008601B0308B00873083168100F83083126F
:040110008100080062
:10011400831203132B0895002D089B0009308800D7
:020124000800D1
:0C0126008312031395019B01880108005F
:10013200831203132B0895002D089B0005308800BD
:020142000800B3
:0E0144000030831203138C1A0130F000080003
:10015200831203131F151F1DAF28AC281E08F100C0
:0E016200F00183161E08F0040030F1040800BE
:10017000831203132B0895002D089B000A3088007A
:02018000080075
:1001820083120313A801A101782040204920803066
:10019200AB002530AC00AD01AE016C2061207008CF
:1001A200A200A22070080319D8280130A100220859
:1001B2000319DD280130A100210803194429A220D6
:1001C200700803194329932061207008A2002F2987
:1001D2007830AB000030AC007830AD000030AE00BB
:1001E200992043297830AB000030AC007830AD0064
:1001F2000030AE00B82043293230AB000030AC00F2
:100202007830AD000030AE00582043297830AB0082
:100212000030AC003230AD000030AE008A204329FD
:100222006430AF000030B0002320A9207008831290
:10023200A3007108A4006430AF000030B000232096
:10024200F430AF000130B00023208614F430AF0048
:100252000130B0002320FD30860543292208463AAA
:100262000319E9282208423A0319F3282208523ACC
:100272000319FD2822084C3A031907292208573A84
:1002820003191129DD282108031D71297830AB00DB
:100292000030AC007830AD000030AE009920061975
:1002A20060297830AB000030AC003230AD00003055
:1002B200AE008A20210803195F2960295029061AF5
:1002C20070293230AB000030AC007830AD00003025
:1002D200AE005820210803196F297029602944298A
:0402E200CF28722986
:02400E004A2F37
:00000001FF
