:020000003128A5
:10000800FF00030E8301A4000A08A5008A017008F6
:10001800A0000C1D2828230803191C280D30960061
:10002800AC309500A301093097008F018E01262876
:100038008E30960094309500083097000130A30068
:100048008F018E01FB308C052008F00025088A00FE
:0A005800240E8300FF0E7F0E090046
:10006200023083160313860083128601861C4A28F7
:100072008316870183128F018E010130A30008309D
:100082009700873083168100013083129000F03090
:060092008B0037284B280B
:02400E004A2F37
:00000001FF
