:02000000DF28F7
:10000800FF00030E8301A9000A08AA008A017008EC
:10001800A0008B1C1328A109FD308B0518280B1D87
:100028001828F8308100A70AFB308B052008F0005B
:0E0038002A088A00290E8300FF0E7F0E0900A1
:1000460083120313A7013008003C031D2C282F0838
:0A005600270203182F2826280800AF
:0E006000831203132F08950031089B0008003F
:10006E008316031398169030831298008316871701
:10007E00071383128C1E46281A08F0004028080029
:10008E00153083160313860088018830870083128B
:10009E008601B0308B00873083168100F8308312D2
:0400AE0081000800C5
:1000B2003330831603139900181537206430AF00CC
:0800C2000030B000232008000B
:1000CA00FA308316031392000C30831297000C3017
:0E00DA009D0095019B019101063092000800E7
:1000E800831203131A08F100981C7C28181218169A
:0600F8007108F000080091
:1000FE004930831203139F00C03083169F0085146E
:02010E000800E7
:0E0110000030831203138C1A0130F000080037
:10011E00831203132B08AF002C08B0002D08B1007A
:0C012E002E08B2003020093088000800C4
:10013A0083120313AF01B001B101B201302088016B
:02014A000800AB
:10014C00831203132B08AF002C08B0002D08B1004C
:0C015C002E08B20030200530880008009A
:10016800831203132B08AF002C08B0002D08B10030
:0C0178002E08B20030200630880008007D
:10018400831203131F151F1DC828C5281E08F1005C
:0E019400F00183161E08F0040030F10408008C
:1001A200831203132B08AF002C08B0002D08B100F6
:0C01B2002E08B20030200A30880008003F
:1001BE0083120313A801A10147207F206520803000
:1001CE00AB002530AC00AD01AE0159207420700893
:1001DE00A200882070080319F6280130A100220819
:1001EE000319FB280130A100210803196229882078
:1001FE007008031961299D2074207008A2004D29F2
:10020E007830AB000030AC007830AD000030AE007E
:10021E00A62061297830AB000030AC007830AD00FC
:10022E000030AE00D12061293230AB000030AC007E
:10023E007830AD000030AE00B42061297830AB00CC
:10024E000030AC003230AD000030AE008F2061299E
:10025E006430AF000030B0002320C220700883123B
:10026E00A3007108A4006430AF000030B00023205A
:10027E00F430AF000130B00023208614F430AF000C
:10028E000130B0002320FD30860561292208463A50
:10029E00031907292208423A031911292208523A52
:1002AE0003191B2922084C3A031925292208573A0B
:1002BE0003192F29FB282108031D8F297830AB0045
:1002CE000030AC007830AD000030AE00A62006192C
:1002DE007E297830AB000030AC003230AD000030FB
:1002EE00AE008F20210803197D297E296E29061A5A
:1002FE008E293230AB000030AC007830AD000030CB
:10030E00AE00B420210803198D298E297E29622979
:04031E00ED2890290D
:02400E004A2F37
:00000001FF
